{
  "contractName": "Remittance",
  "abi": [
    {
      "constant": true,
      "inputs": [
        {
          "name": "",
          "type": "address"
        }
      ],
      "name": "balances",
      "outputs": [
        {
          "name": "",
          "type": "uint256"
        }
      ],
      "payable": false,
      "stateMutability": "view",
      "type": "function"
    },
    {
      "constant": true,
      "inputs": [
        {
          "name": "",
          "type": "bytes32"
        }
      ],
      "name": "deposits",
      "outputs": [
        {
          "name": "amount",
          "type": "uint256"
        },
        {
          "name": "timeLimit",
          "type": "uint256"
        },
        {
          "name": "exchanger",
          "type": "address"
        }
      ],
      "payable": false,
      "stateMutability": "view",
      "type": "function"
    },
    {
      "constant": false,
      "inputs": [],
      "name": "pauseContract",
      "outputs": [
        {
          "name": "success",
          "type": "bool"
        }
      ],
      "payable": false,
      "stateMutability": "nonpayable",
      "type": "function"
    },
    {
      "constant": true,
      "inputs": [],
      "name": "owner",
      "outputs": [
        {
          "name": "",
          "type": "address"
        }
      ],
      "payable": false,
      "stateMutability": "view",
      "type": "function"
    },
    {
      "constant": false,
      "inputs": [],
      "name": "resumeContract",
      "outputs": [
        {
          "name": "success",
          "type": "bool"
        }
      ],
      "payable": false,
      "stateMutability": "nonpayable",
      "type": "function"
    },
    {
      "inputs": [],
      "payable": false,
      "stateMutability": "nonpayable",
      "type": "constructor"
    },
    {
      "anonymous": false,
      "inputs": [
        {
          "indexed": false,
          "name": "sender",
          "type": "address"
        },
        {
          "indexed": false,
          "name": "exchanger",
          "type": "address"
        },
        {
          "indexed": false,
          "name": "receiver",
          "type": "address"
        },
        {
          "indexed": false,
          "name": "amount",
          "type": "uint256"
        },
        {
          "indexed": false,
          "name": "psw",
          "type": "bytes32"
        }
      ],
      "name": "LogDeposit",
      "type": "event"
    },
    {
      "anonymous": false,
      "inputs": [
        {
          "indexed": false,
          "name": "receiver",
          "type": "address"
        },
        {
          "indexed": false,
          "name": "exchanger",
          "type": "address"
        },
        {
          "indexed": false,
          "name": "amount",
          "type": "uint256"
        },
        {
          "indexed": false,
          "name": "psw",
          "type": "bytes32"
        }
      ],
      "name": "LogWithdraw",
      "type": "event"
    },
    {
      "anonymous": false,
      "inputs": [
        {
          "indexed": false,
          "name": "sender",
          "type": "address"
        }
      ],
      "name": "LogPausedContract",
      "type": "event"
    },
    {
      "anonymous": false,
      "inputs": [
        {
          "indexed": false,
          "name": "sender",
          "type": "address"
        }
      ],
      "name": "LogResumeContract",
      "type": "event"
    },
    {
      "anonymous": false,
      "inputs": [
        {
          "indexed": false,
          "name": "sender",
          "type": "address"
        },
        {
          "indexed": false,
          "name": "newOwner",
          "type": "address"
        }
      ],
      "name": "LogChangeOwner",
      "type": "event"
    },
    {
      "constant": false,
      "inputs": [
        {
          "name": "newState",
          "type": "bool"
        }
      ],
      "name": "setIsActive",
      "outputs": [
        {
          "name": "success",
          "type": "bool"
        }
      ],
      "payable": false,
      "stateMutability": "nonpayable",
      "type": "function"
    },
    {
      "constant": false,
      "inputs": [
        {
          "name": "receiver",
          "type": "address"
        },
        {
          "name": "puzzle",
          "type": "bytes32"
        }
      ],
      "name": "depositOnContract",
      "outputs": [
        {
          "name": "success",
          "type": "bool"
        }
      ],
      "payable": true,
      "stateMutability": "payable",
      "type": "function"
    },
    {
      "constant": false,
      "inputs": [
        {
          "name": "exchanger",
          "type": "address"
        },
        {
          "name": "receiver",
          "type": "address"
        },
        {
          "name": "puzzle",
          "type": "bytes32"
        }
      ],
      "name": "depositOnContractPlus",
      "outputs": [
        {
          "name": "success",
          "type": "bool"
        }
      ],
      "payable": true,
      "stateMutability": "payable",
      "type": "function"
    },
    {
      "constant": false,
      "inputs": [
        {
          "name": "receiver",
          "type": "address"
        },
        {
          "name": "password1",
          "type": "string"
        },
        {
          "name": "password2",
          "type": "string"
        }
      ],
      "name": "withdraw",
      "outputs": [
        {
          "name": "success",
          "type": "bool"
        }
      ],
      "payable": false,
      "stateMutability": "nonpayable",
      "type": "function"
    },
    {
      "constant": false,
      "inputs": [
        {
          "name": "exchanger",
          "type": "address"
        },
        {
          "name": "receiver",
          "type": "address"
        },
        {
          "name": "password1",
          "type": "string"
        },
        {
          "name": "password2",
          "type": "string"
        }
      ],
      "name": "withdrawPlus",
      "outputs": [
        {
          "name": "success",
          "type": "bool"
        }
      ],
      "payable": false,
      "stateMutability": "nonpayable",
      "type": "function"
    },
    {
      "constant": true,
      "inputs": [
        {
          "name": "addr",
          "type": "address"
        }
      ],
      "name": "getBalance",
      "outputs": [
        {
          "name": "",
          "type": "uint256"
        }
      ],
      "payable": false,
      "stateMutability": "view",
      "type": "function"
    },
    {
      "constant": true,
      "inputs": [],
      "name": "getContractBalance",
      "outputs": [
        {
          "name": "",
          "type": "uint256"
        }
      ],
      "payable": false,
      "stateMutability": "view",
      "type": "function"
    },
    {
      "constant": true,
      "inputs": [],
      "name": "getContractAddress",
      "outputs": [
        {
          "name": "",
          "type": "address"
        }
      ],
      "payable": false,
      "stateMutability": "view",
      "type": "function"
    },
    {
      "constant": true,
      "inputs": [
        {
          "name": "password1",
          "type": "string"
        },
        {
          "name": "password2",
          "type": "string"
        }
      ],
      "name": "computeHash",
      "outputs": [
        {
          "name": "",
          "type": "bytes32"
        }
      ],
      "payable": false,
      "stateMutability": "pure",
      "type": "function"
    }
  ],
  "bytecode": "0x608060405234801561001057600080fd5b50336000806101000a81548173ffffffffffffffffffffffffffffffffffffffff021916908373ffffffffffffffffffffffffffffffffffffffff1602179055506001600060146101000a81548160ff0219169083151502179055506001600060156101000a81548160ff021916908315150217905550611c61806100966000396000f3006080604052600436106100d0576000357c0100000000000000000000000000000000000000000000000000000000900463ffffffff1680632750fc78146100d557806327e235e31461011c57806332a2c5d0146101735780633d4dff7b146101ca57806341c7290e14610249578063439766ce146103505780636f9fb98a1461037f57806377968033146103aa5780638da5cb5b14610406578063a58bb42e1461045d578063c0dc126b14610528578063c4bc5da51461060f578063dd1a3c9b1461063e578063f8b2cb4f146106ba575b600080fd5b3480156100e157600080fd5b50610102600480360381019080803515159060200190929190505050610711565b604051808215151515815260200191505060405180910390f35b34801561012857600080fd5b5061015d600480360381019080803573ffffffffffffffffffffffffffffffffffffffff1690602001909291905050506107ac565b6040518082815260200191505060405180910390f35b34801561017f57600080fd5b506101886107c4565b604051808273ffffffffffffffffffffffffffffffffffffffff1673ffffffffffffffffffffffffffffffffffffffff16815260200191505060405180910390f35b3480156101d657600080fd5b506101f960048036038101908080356000191690602001909291905050506107cc565b604051808481526020018381526020018273ffffffffffffffffffffffffffffffffffffffff1673ffffffffffffffffffffffffffffffffffffffff168152602001935050505060405180910390f35b34801561025557600080fd5b50610336600480360381019080803573ffffffffffffffffffffffffffffffffffffffff169060200190929190803573ffffffffffffffffffffffffffffffffffffffff169060200190929190803590602001908201803590602001908080601f0160208091040260200160405190810160405280939291908181526020018383808284378201915050505050509192919290803590602001908201803590602001908080601f0160208091040260200160405190810160405280939291908181526020018383808284378201915050505050509192919290505050610816565b604051808215151515815260200191505060405180910390f35b34801561035c57600080fd5b50610365610b76565b604051808215151515815260200191505060405180910390f35b34801561038b57600080fd5b50610394610c72565b6040518082815260200191505060405180910390f35b6103ec600480360381019080803573ffffffffffffffffffffffffffffffffffffffff1690602001909291908035600019169060200190929190505050610c91565b604051808215151515815260200191505060405180910390f35b34801561041257600080fd5b5061041b6110ed565b604051808273ffffffffffffffffffffffffffffffffffffffff1673ffffffffffffffffffffffffffffffffffffffff16815260200191505060405180910390f35b34801561046957600080fd5b5061050a600480360381019080803590602001908201803590602001908080601f0160208091040260200160405190810160405280939291908181526020018383808284378201915050505050509192919290803590602001908201803590602001908080601f0160208091040260200160405190810160405280939291908181526020018383808284378201915050505050509192919290505050611112565b60405180826000191660001916815260200191505060405180910390f35b34801561053457600080fd5b506105f5600480360381019080803573ffffffffffffffffffffffffffffffffffffffff169060200190929190803590602001908201803590602001908080601f0160208091040260200160405190810160405280939291908181526020018383808284378201915050505050509192919290803590602001908201803590602001908080601f0160208091040260200160405190810160405280939291908181526020018383808284378201915050505050509192919290505050611240565b604051808215151515815260200191505060405180910390f35b34801561061b57600080fd5b50610624611676565b604051808215151515815260200191505060405180910390f35b6106a0600480360381019080803573ffffffffffffffffffffffffffffffffffffffff169060200190929190803573ffffffffffffffffffffffffffffffffffffffff169060200190929190803560001916906020019092919050505061178f565b604051808215151515815260200191505060405180910390f35b3480156106c657600080fd5b506106fb600480360381019080803573ffffffffffffffffffffffffffffffffffffffff169060200190929190505050611bec565b6040518082815260200191505060405180910390f35b60003373ffffffffffffffffffffffffffffffffffffffff166000809054906101000a900473ffffffffffffffffffffffffffffffffffffffff1673ffffffffffffffffffffffffffffffffffffffff1614151561076e57600080fd5b600060149054906101000a900460ff16151561078957600080fd5b81600060156101000a81548160ff02191690831515021790555060019050919050565b60016020528060005260406000206000915090505481565b600030905090565b60026020528060005260406000206000915090508060000154908060010154908060020160009054906101000a900473ffffffffffffffffffffffffffffffffffffffff16905083565b600080600060149054906101000a900460ff16151561083457600080fd5b61083e8484611112565b9050600060026000836000191660001916815260200190815260200160002060000154141515156108d7576040517f08c379a00000000000000000000000000000000000000000000000000000000081526004018080602001828103825260138152602001807f596f75207368616c6c206e6f742070617373210000000000000000000000000081525060200191505060405180910390fd5b8473ffffffffffffffffffffffffffffffffffffffff166108fc600260008460001916600019168152602001908152602001600020600001549081150290604051600060405180830381858888f1935050505015801561093b573d6000803e3d6000fd5b5060026000826000191660001916815260200190815260200160002060000154600160008773ffffffffffffffffffffffffffffffffffffffff1673ffffffffffffffffffffffffffffffffffffffff1681526020019081526020016000206000828254019250508190555060026000826000191660001916815260200190815260200160002060000154600160008873ffffffffffffffffffffffffffffffffffffffff1673ffffffffffffffffffffffffffffffffffffffff168152602001908152602001600020600082825403925050819055507f74348e8cb927b5536fe550310d0cdf05914498fcb04ad61b99c29e3899b0bce985876002600085600019166000191681526020019081526020016000206000015484604051808573ffffffffffffffffffffffffffffffffffffffff1673ffffffffffffffffffffffffffffffffffffffff1681526020018473ffffffffffffffffffffffffffffffffffffffff1673ffffffffffffffffffffffffffffffffffffffff168152602001838152602001826000191660001916815260200194505050505060405180910390a16000600160008873ffffffffffffffffffffffffffffffffffffffff1673ffffffffffffffffffffffffffffffffffffffff168152602001908152602001600020819055506000600160003373ffffffffffffffffffffffffffffffffffffffff1673ffffffffffffffffffffffffffffffffffffffff168152602001908152602001600020819055506001915050949350505050565b60003373ffffffffffffffffffffffffffffffffffffffff166000809054906101000a900473ffffffffffffffffffffffffffffffffffffffff1673ffffffffffffffffffffffffffffffffffffffff16141515610bd357600080fd5b600060149054906101000a900460ff161515610bee57600080fd5b60008060146101000a81548160ff0219169083151502179055507f0f16e24f375b1dbe1f5a889ed7cfe74cc12486509f3d710d14078f001874362233604051808273ffffffffffffffffffffffffffffffffffffffff1673ffffffffffffffffffffffffffffffffffffffff16815260200191505060405180910390a16001905090565b60003073ffffffffffffffffffffffffffffffffffffffff1631905090565b60008060149054906101000a900460ff161515610cad57600080fd5b3373ffffffffffffffffffffffffffffffffffffffff166000809054906101000a900473ffffffffffffffffffffffffffffffffffffffff1673ffffffffffffffffffffffffffffffffffffffff16141515610d0857600080fd5b600034111515610d80576040517f08c379a00000000000000000000000000000000000000000000000000000000081526004018080602001828103825260128152602001807f496e73756666696369656e742066756e6473000000000000000000000000000081525060200191505060405180910390fd5b600073ffffffffffffffffffffffffffffffffffffffff163373ffffffffffffffffffffffffffffffffffffffff1614151515610e25576040517f08c379a00000000000000000000000000000000000000000000000000000000081526004018080602001828103825260188152602001807f2061646472657373206d757374206e6f7420626520307830000000000000000081525060200191505060405180910390fd5b600060026000846000191660001916815260200190815260200160002060000154141515610ebb576040517f08c379a00000000000000000000000000000000000000000000000000000000081526004018080602001828103825260148152602001807f50757a7a6c6520616c726561647920757365642100000000000000000000000081525060200191505060405180910390fd5b34600160003373ffffffffffffffffffffffffffffffffffffffff1673ffffffffffffffffffffffffffffffffffffffff168152602001908152602001600020600082825401925050819055506060604051908101604052803481526020014281526020013073ffffffffffffffffffffffffffffffffffffffff16815250600260008460001916600019168152602001908152602001600020600082015181600001556020820151816001015560408201518160020160006101000a81548173ffffffffffffffffffffffffffffffffffffffff021916908373ffffffffffffffffffffffffffffffffffffffff1602179055509050507fed8f0a3d05dea5de1504db79a10201037de0f2c7225332b612aa2ff1aeefa8b33330853486604051808673ffffffffffffffffffffffffffffffffffffffff1673ffffffffffffffffffffffffffffffffffffffff1681526020018573ffffffffffffffffffffffffffffffffffffffff1673ffffffffffffffffffffffffffffffffffffffff1681526020018473ffffffffffffffffffffffffffffffffffffffff1673ffffffffffffffffffffffffffffffffffffffff16815260200183815260200182600019166000191681526020019550505050505060405180910390a134600160003073ffffffffffffffffffffffffffffffffffffffff1673ffffffffffffffffffffffffffffffffffffffff168152602001908152602001600020600082825401925050819055506001905092915050565b6000809054906101000a900473ffffffffffffffffffffffffffffffffffffffff1681565b600082826040516020018083805190602001908083835b60208310151561114e5780518252602082019150602081019050602083039250611129565b6001836020036101000a03801982511681845116808217855250505050505090500182805190602001908083835b6020831015156111a1578051825260208201915060208101905060208303925061117c565b6001836020036101000a038019825116818451168082178552505050505050905001925050506040516020818303038152906040526040518082805190602001908083835b60208310151561120b57805182526020820191506020810190506020830392506111e6565b6001836020036101000a0380198251168184511680821785525050505050509050019150506040518091039020905092915050565b600080600060149054906101000a900460ff16151561125e57600080fd5b6112688484611112565b905060006002600083600019166000191681526020019081526020016000206000015414151515611301576040517f08c379a00000000000000000000000000000000000000000000000000000000081526004018080602001828103825260138152602001807f596f75207368616c6c206e6f742070617373210000000000000000000000000081525060200191505060405180910390fd5b600060026000836000191660001916815260200190815260200160002060000154600160003373ffffffffffffffffffffffffffffffffffffffff1673ffffffffffffffffffffffffffffffffffffffff16815260200190815260200160002054031115156113d8576040517f08c379a00000000000000000000000000000000000000000000000000000000081526004018080602001828103825260128152602001807f496e73756666696369656e742066756e6473000000000000000000000000000081525060200191505060405180910390fd5b8473ffffffffffffffffffffffffffffffffffffffff166108fc600260008460001916600019168152602001908152602001600020600001549081150290604051600060405180830381858888f1935050505015801561143c573d6000803e3d6000fd5b5060026000826000191660001916815260200190815260200160002060000154600160008773ffffffffffffffffffffffffffffffffffffffff1673ffffffffffffffffffffffffffffffffffffffff1681526020019081526020016000206000828254019250508190555060026000826000191660001916815260200190815260200160002060000154600160003073ffffffffffffffffffffffffffffffffffffffff1673ffffffffffffffffffffffffffffffffffffffff168152602001908152602001600020600082825403925050819055507f74348e8cb927b5536fe550310d0cdf05914498fcb04ad61b99c29e3899b0bce985306002600085600019166000191681526020019081526020016000206000015484604051808573ffffffffffffffffffffffffffffffffffffffff1673ffffffffffffffffffffffffffffffffffffffff1681526020018473ffffffffffffffffffffffffffffffffffffffff1673ffffffffffffffffffffffffffffffffffffffff168152602001838152602001826000191660001916815260200194505050505060405180910390a16000600160003073ffffffffffffffffffffffffffffffffffffffff1673ffffffffffffffffffffffffffffffffffffffff168152602001908152602001600020819055506000600160003373ffffffffffffffffffffffffffffffffffffffff1673ffffffffffffffffffffffffffffffffffffffff1681526020019081526020016000208190555060019150509392505050565b60003373ffffffffffffffffffffffffffffffffffffffff166000809054906101000a900473ffffffffffffffffffffffffffffffffffffffff1673ffffffffffffffffffffffffffffffffffffffff161415156116d357600080fd5b600060149054906101000a900460ff1615156116ee57600080fd5b600060149054906101000a900460ff1615151561170a57600080fd5b6001600060146101000a81548160ff0219169083151502179055507f1f98e15848335d04a3b0c6ed4988542831246d3ae2250d2ad35485b34e6945b033604051808273ffffffffffffffffffffffffffffffffffffffff1673ffffffffffffffffffffffffffffffffffffffff16815260200191505060405180910390a16001905090565b60008060149054906101000a900460ff1615156117ab57600080fd5b3373ffffffffffffffffffffffffffffffffffffffff166000809054906101000a900473ffffffffffffffffffffffffffffffffffffffff1673ffffffffffffffffffffffffffffffffffffffff1614151561180657600080fd5b60003411151561187e576040517f08c379a00000000000000000000000000000000000000000000000000000000081526004018080602001828103825260128152602001807f496e73756666696369656e742066756e6473000000000000000000000000000081525060200191505060405180910390fd5b600073ffffffffffffffffffffffffffffffffffffffff163373ffffffffffffffffffffffffffffffffffffffff1614151515611923576040517f08c379a00000000000000000000000000000000000000000000000000000000081526004018080602001828103825260188152602001807f2061646472657373206d757374206e6f7420626520307830000000000000000081525060200191505060405180910390fd5b6000600260008460001916600019168152602001908152602001600020600001541415156119b9576040517f08c379a00000000000000000000000000000000000000000000000000000000081526004018080602001828103825260148152602001807f50757a7a6c6520616c726561647920757365642100000000000000000000000081525060200191505060405180910390fd5b34600160003373ffffffffffffffffffffffffffffffffffffffff1673ffffffffffffffffffffffffffffffffffffffff168152602001908152602001600020600082825401925050819055506060604051908101604052803481526020014281526020018573ffffffffffffffffffffffffffffffffffffffff16815250600260008460001916600019168152602001908152602001600020600082015181600001556020820151816001015560408201518160020160006101000a81548173ffffffffffffffffffffffffffffffffffffffff021916908373ffffffffffffffffffffffffffffffffffffffff1602179055509050507fed8f0a3d05dea5de1504db79a10201037de0f2c7225332b612aa2ff1aeefa8b33385853486604051808673ffffffffffffffffffffffffffffffffffffffff1673ffffffffffffffffffffffffffffffffffffffff1681526020018573ffffffffffffffffffffffffffffffffffffffff1673ffffffffffffffffffffffffffffffffffffffff1681526020018473ffffffffffffffffffffffffffffffffffffffff1673ffffffffffffffffffffffffffffffffffffffff16815260200183815260200182600019166000191681526020019550505050505060405180910390a134600160008673ffffffffffffffffffffffffffffffffffffffff1673ffffffffffffffffffffffffffffffffffffffff16815260200190815260200160002060008282540192505081905550600190509392505050565b6000600160008373ffffffffffffffffffffffffffffffffffffffff1673ffffffffffffffffffffffffffffffffffffffff1681526020019081526020016000205490509190505600a165627a7a723058203b634e173f22ba76f93c5a1a0ebaa08797abe9082bf503571ad5b26d3d5af59f0029",
  "source": "pragma solidity ^0.4.18;\n\nimport \"./Owned.sol\";\nimport \"./Stoppable.sol\";\n\ncontract Remittance is Stoppable {\n    \n    bool isActive; \n    \n    struct deposit {\n        uint amount; // Amount to send \n        uint timeLimit; // Time limit within the amount can be withdraw\n        address exchanger; \n        \n    }\n    \n    \n    \n    //store balances\n    mapping(address => uint) public balances;\n    //store psw \n    //mapping(address => bytes32) public passwords;\n    // store deposits\n    mapping(bytes32 => deposit) public deposits; \n    \n    \n    event LogDeposit(address sender, address exchanger, address receiver, uint amount, bytes32 psw);\n    event LogWithdraw(address receiver , address exchanger, uint amount, bytes32 psw);\n    \n    constructor() public {\n        isActive = true;\n    }\n    \n    function setIsActive(bool newState) public onlyOwner onlyIfRunning returns(bool success) {\n        isActive = newState;\n        return true;\n    }\n    \n    /*\n    *   Function to load ether on contract. Once it is loaded the amount can \n    *   be withdraw only to whom who knows the complete password \n    */\n      function depositOnContract(address receiver, bytes32 puzzle) onlyIfRunning onlyOwner public payable returns(bool success){\n        require(msg.value > 0, \"Insufficient funds\");\n        require(msg.sender != address(0), \" address must not be 0x0\");\n        require(deposits[puzzle].amount == 0, \"Puzzle already used!\");\n      \n        balances[msg.sender] += msg.value;\n        \n        deposits[puzzle] = deposit(msg.value, now, this);\n        emit LogDeposit(msg.sender, this, receiver, msg.value, puzzle);\n        \n        \n        balances[this] += msg.value;\n        \n        return true; \n        }\n        \n        \n     /**\n        *    Function to load ether on contract. Once it is loaded the amount can \n        *    be withdraw only to whom who knows the complete password. This \n        *    version allow to set a specific address fot the ttp. \n        */\n      function depositOnContractPlus(address exchanger, address receiver, bytes32 puzzle) onlyIfRunning onlyOwner public payable returns(bool success){\n        require(msg.value > 0, \"Insufficient funds\");\n        require(msg.sender != address(0), \" address must not be 0x0\");\n        require(deposits[puzzle].amount == 0, \"Puzzle already used!\");\n        \n        balances[msg.sender] += msg.value;\n        \n        deposits[puzzle] = deposit(msg.value, now, exchanger);\n        emit LogDeposit(msg.sender, exchanger, receiver, msg.value, puzzle);\n        \n        balances[exchanger] += msg.value;\n        \n        return true; \n        } \n           \n     \n        \n     function withdraw(address receiver, string password1, string password2) public onlyIfRunning returns(bool success){\n        // you can withdraw coins only if you know the right password\n        bytes32 tmp_password = computeHash(password1, password2);\n        require(deposits[tmp_password].amount != 0, \"You shall not pass!\" );\n        require(balances[msg.sender] - deposits[tmp_password].amount > 0, \"Insufficient funds\");\n        \n        // and only within a limited amount of time \n        //require(deposits[tmp_password].timeLimit == now, \"Session expired\");\n        \n        // transfer the coins to the receiver\n        receiver.transfer(deposits[tmp_password].amount);\n        \n        balances[receiver] += deposits[tmp_password].amount;\n        balances[this] -= deposits[tmp_password].amount;\n        \n        emit LogWithdraw(receiver,this,deposits[tmp_password].amount,tmp_password);\n        \n        // Avoiding double spending problem\n        balances[this] = 0;\n        balances[msg.sender] = 0;\n        \n        return true;\n     }\n     \n     function withdrawPlus(address exchanger, address receiver, string password1, string password2) public onlyIfRunning returns(bool success){\n        // you can withdraw coins only if you know the right password\n        bytes32 tmp_password = computeHash(password1, password2);\n        require(deposits[tmp_password].amount != 0, \"You shall not pass!\" );\n        // and only within a limited amount of time \n        //require(deposits[tmp_password].timeLimit == now, \"Session expired\");\n        \n        // transfer the coins to the receiver\n        receiver.transfer(deposits[tmp_password].amount);\n        \n        balances[receiver] += deposits[tmp_password].amount;\n        balances[exchanger] -= deposits[tmp_password].amount;\n        \n        emit LogWithdraw(receiver,exchanger,deposits[tmp_password].amount,tmp_password);\n        \n        // Avoiding double spending problem\n        balances[exchanger] = 0;\n        balances[msg.sender] = 0;\n        \n        return true;\n     }\n     \n     \n    /* Utils */\n        \n    /*Function to get the balance of a given address*/    \n    function getBalance(address addr) public view returns(uint) {\n        return balances[addr];\n    }\n    \n    /*Function to get the balance of a given address*/    \n    function getContractBalance() public view returns(uint) {\n        return address(this).balance;\n    }\n    \n    /*Function to get the balance of a given address*/    \n    function getContractAddress() public view returns(address) {\n        return this;\n    } \n    \n    function computeHash(string password1, string password2) public pure returns(bytes32){\n        return keccak256(abi.encodePacked(password1,password2));\n    }\n}\n    \n",
  "sourcePath": "/home/kerol/DAPPS/remittance/contracts/Remittance.sol",
  "compiler": {
    "name": "solc",
    "version": "0.4.24+commit.e67f0147.Emscripten.clang"
  },
  "schemaVersion": "2.0.1",
  "updatedAt": "2018-08-12T16:52:18.193Z"
}